00123LEONARDO ROCHA                000001000
00234PAWEL COELHO                  000005000
00345CARLOS PEREIRA                000000500
00456ANA BEATRIZ LIMA              000002500
00567MARCOS OLIVEIRA               000000100
00678JULIA SANTOS                  000003000
00789ROBERTO FARIA                 000000800