000001 00123LEONARDO ROCHA                000002000
000002 00234PAWEL COELHO                  000005000
000003 00345CARLOS PEREIRA                000000000
000004 00456ANA BEATRIZ LIMA              000002500
000005 00567MARCOS OLIVEIRA               000000100
000006 00678JULIA SANTOS                  000003000
000007 00789ROBERTO FARIA                 000000500